{"abi":[{"type":"constructor","inputs":[{"name":"_tokenAddress","type":"address","internalType":"address"}],"stateMutability":"nonpayable"},{"type":"function","name":"balances","inputs":[{"name":"","type":"address","internalType":"address"},{"name":"","type":"address","internalType":"address"}],"outputs":[{"name":"","type":"uint256","internalType":"uint256"}],"stateMutability":"view"},{"type":"function","name":"deposit","inputs":[{"name":"amount","type":"uint256","internalType":"uint256"}],"outputs":[],"stateMutability":"nonpayable"},{"type":"function","name":"getBalance","inputs":[{"name":"user","type":"address","internalType":"address"}],"outputs":[{"name":"","type":"uint256","internalType":"uint256"}],"stateMutability":"view"},{"type":"function","name":"tokenAddress","inputs":[],"outputs":[{"name":"","type":"address","internalType":"address"}],"stateMutability":"view"},{"type":"function","name":"withdraw","inputs":[{"name":"amount","type":"uint256","internalType":"uint256"}],"outputs":[],"stateMutability":"nonpayable"}],"bytecode":{"object":"0x608060405234801561000f575f5ffd5b50604051610bc6380380610bc6833981810160405281019061003191906100d5565b8060015f6101000a81548173ffffffffffffffffffffffffffffffffffffffff021916908373ffffffffffffffffffffffffffffffffffffffff16021790555050610100565b5f5ffd5b5f73ffffffffffffffffffffffffffffffffffffffff82169050919050565b5f6100a48261007b565b9050919050565b6100b48161009a565b81146100be575f5ffd5b50565b5f815190506100cf816100ab565b92915050565b5f602082840312156100ea576100e9610077565b5b5f6100f7848285016100c1565b91505092915050565b610ab98061010d5f395ff3fe608060405234801561000f575f5ffd5b5060043610610055575f3560e01c80632e1a7d4d146100595780639d76ea5814610075578063b6b55f2514610093578063c23f001f146100af578063f8b2cb4f146100df575b5f5ffd5b610073600480360381019061006e91906106ae565b61010f565b005b61007d6103bd565b60405161008a9190610718565b60405180910390f35b6100ad60048036038101906100a891906106ae565b6103e2565b005b6100c960048036038101906100c4919061075b565b6105b7565b6040516100d691906107a8565b60405180910390f35b6100f960048036038101906100f491906107c1565b6105d6565b60405161010691906107a8565b60405180910390f35b5f8111610151576040517f08c379a000000000000000000000000000000000000000000000000000000000815260040161014890610846565b60405180910390fd5b805f5f60015f9054906101000a900473ffffffffffffffffffffffffffffffffffffffff1673ffffffffffffffffffffffffffffffffffffffff1673ffffffffffffffffffffffffffffffffffffffff1681526020019081526020015f205f3373ffffffffffffffffffffffffffffffffffffffff1673ffffffffffffffffffffffffffffffffffffffff1681526020019081526020015f2054101561022c576040517f08c379a0000000000000000000000000000000000000000000000000000000008152600401610223906108ae565b60405180910390fd5b805f5f60015f9054906101000a900473ffffffffffffffffffffffffffffffffffffffff1673ffffffffffffffffffffffffffffffffffffffff1673ffffffffffffffffffffffffffffffffffffffff1681526020019081526020015f205f3373ffffffffffffffffffffffffffffffffffffffff1673ffffffffffffffffffffffffffffffffffffffff1681526020019081526020015f205f8282546102d391906108f9565b925050819055505f60015f9054906101000a900473ffffffffffffffffffffffffffffffffffffffff1673ffffffffffffffffffffffffffffffffffffffff1663a9059cbb33846040518363ffffffff1660e01b815260040161033792919061092c565b6020604051808303815f875af1158015610353573d5f5f3e3d5ffd5b505050506040513d601f19601f820116820180604052508101906103779190610988565b9050806103b9576040517f08c379a00000000000000000000000000000000000000000000000000000000081526004016103b0906109fd565b60405180910390fd5b5050565b60015f9054906101000a900473ffffffffffffffffffffffffffffffffffffffff1681565b5f8111610424576040517f08c379a000000000000000000000000000000000000000000000000000000000815260040161041b90610846565b60405180910390fd5b5f60015f9054906101000a900473ffffffffffffffffffffffffffffffffffffffff1673ffffffffffffffffffffffffffffffffffffffff166323b872dd3330856040518463ffffffff1660e01b815260040161048393929190610a1b565b6020604051808303815f875af115801561049f573d5f5f3e3d5ffd5b505050506040513d601f19601f820116820180604052508101906104c39190610988565b905080610505576040517f08c379a00000000000000000000000000000000000000000000000000000000081526004016104fc906109fd565b60405180910390fd5b815f5f60015f9054906101000a900473ffffffffffffffffffffffffffffffffffffffff1673ffffffffffffffffffffffffffffffffffffffff1673ffffffffffffffffffffffffffffffffffffffff1681526020019081526020015f205f3373ffffffffffffffffffffffffffffffffffffffff1673ffffffffffffffffffffffffffffffffffffffff1681526020019081526020015f205f8282546105ac9190610a50565b925050819055505050565b5f602052815f5260405f20602052805f5260405f205f91509150505481565b5f5f5f60015f9054906101000a900473ffffffffffffffffffffffffffffffffffffffff1673ffffffffffffffffffffffffffffffffffffffff1673ffffffffffffffffffffffffffffffffffffffff1681526020019081526020015f205f8373ffffffffffffffffffffffffffffffffffffffff1673ffffffffffffffffffffffffffffffffffffffff1681526020019081526020015f20549050919050565b5f5ffd5b5f819050919050565b61068d8161067b565b8114610697575f5ffd5b50565b5f813590506106a881610684565b92915050565b5f602082840312156106c3576106c2610677565b5b5f6106d08482850161069a565b91505092915050565b5f73ffffffffffffffffffffffffffffffffffffffff82169050919050565b5f610702826106d9565b9050919050565b610712816106f8565b82525050565b5f60208201905061072b5f830184610709565b92915050565b61073a816106f8565b8114610744575f5ffd5b50565b5f8135905061075581610731565b92915050565b5f5f6040838503121561077157610770610677565b5b5f61077e85828601610747565b925050602061078f85828601610747565b9150509250929050565b6107a28161067b565b82525050565b5f6020820190506107bb5f830184610799565b92915050565b5f602082840312156107d6576107d5610677565b5b5f6107e384828501610747565b91505092915050565b5f82825260208201905092915050565b7f416d6f756e74206d7573742062652067726561746572207468616e20300000005f82015250565b5f610830601d836107ec565b915061083b826107fc565b602082019050919050565b5f6020820190508181035f83015261085d81610824565b9050919050565b7f496e73756666696369656e742062616c616e63650000000000000000000000005f82015250565b5f6108986014836107ec565b91506108a382610864565b602082019050919050565b5f6020820190508181035f8301526108c58161088c565b9050919050565b7f4e487b71000000000000000000000000000000000000000000000000000000005f52601160045260245ffd5b5f6109038261067b565b915061090e8361067b565b9250828203905081811115610926576109256108cc565b5b92915050565b5f60408201905061093f5f830185610709565b61094c6020830184610799565b9392505050565b5f8115159050919050565b61096781610953565b8114610971575f5ffd5b50565b5f815190506109828161095e565b92915050565b5f6020828403121561099d5761099c610677565b5b5f6109aa84828501610974565b91505092915050565b7f5472616e73666572206661696c656400000000000000000000000000000000005f82015250565b5f6109e7600f836107ec565b91506109f2826109b3565b602082019050919050565b5f6020820190508181035f830152610a14816109db565b9050919050565b5f606082019050610a2e5f830186610709565b610a3b6020830185610709565b610a486040830184610799565b949350505050565b5f610a5a8261067b565b9150610a658361067b565b9250828201905080821115610a7d57610a7c6108cc565b5b9291505056fea26469706673582212202e8bf765a27c466c807d27f37d88c536065cf139e1e7f76809757b88a7ebeebe64736f6c634300081c0033","linkReferences":{}},"methodIdentifiers":{"balances(address,address)":"c23f001f","deposit(uint256)":"b6b55f25","getBalance(address)":"f8b2cb4f","tokenAddress()":"9d76ea58","withdraw(uint256)":"2e1a7d4d"},"id":5}