{"abi":[{"type":"constructor","inputs":[{"name":"initialSupply","type":"uint256","internalType":"uint256"}],"stateMutability":"nonpayable"},{"type":"function","name":"allowance","inputs":[{"name":"owner","type":"address","internalType":"address"},{"name":"spender","type":"address","internalType":"address"}],"outputs":[{"name":"","type":"uint256","internalType":"uint256"}],"stateMutability":"view"},{"type":"function","name":"approve","inputs":[{"name":"spender","type":"address","internalType":"address"},{"name":"value","type":"uint256","internalType":"uint256"}],"outputs":[{"name":"","type":"bool","internalType":"bool"}],"stateMutability":"nonpayable"},{"type":"function","name":"balanceOf","inputs":[{"name":"account","type":"address","internalType":"address"}],"outputs":[{"name":"","type":"uint256","internalType":"uint256"}],"stateMutability":"view"},{"type":"function","name":"decimals","inputs":[],"outputs":[{"name":"","type":"uint8","internalType":"uint8"}],"stateMutability":"view"},{"type":"function","name":"name","inputs":[],"outputs":[{"name":"","type":"string","internalType":"string"}],"stateMutability":"view"},{"type":"function","name":"symbol","inputs":[],"outputs":[{"name":"","type":"string","internalType":"string"}],"stateMutability":"view"},{"type":"function","name":"totalSupply","inputs":[],"outputs":[{"name":"","type":"uint256","internalType":"uint256"}],"stateMutability":"view"},{"type":"function","name":"transfer","inputs":[{"name":"to","type":"address","internalType":"address"},{"name":"value","type":"uint256","internalType":"uint256"}],"outputs":[{"name":"","type":"bool","internalType":"bool"}],"stateMutability":"nonpayable"},{"type":"function","name":"transferFrom","inputs":[{"name":"from","type":"address","internalType":"address"},{"name":"to","type":"address","internalType":"address"},{"name":"value","type":"uint256","internalType":"uint256"}],"outputs":[{"name":"","type":"bool","internalType":"bool"}],"stateMutability":"nonpayable"},{"type":"function","name":"transferWithCallback","inputs":[{"name":"recipient","type":"address","internalType":"address"},{"name":"amount","type":"uint256","internalType":"uint256"}],"outputs":[{"name":"","type":"bool","internalType":"bool"}],"stateMutability":"nonpayable"},{"type":"event","name":"Approval","inputs":[{"name":"owner","type":"address","indexed":true,"internalType":"address"},{"name":"spender","type":"address","indexed":true,"internalType":"address"},{"name":"value","type":"uint256","indexed":false,"internalType":"uint256"}],"anonymous":false},{"type":"event","name":"Transfer","inputs":[{"name":"from","type":"address","indexed":true,"internalType":"address"},{"name":"to","type":"address","indexed":true,"internalType":"address"},{"name":"value","type":"uint256","indexed":false,"internalType":"uint256"}],"anonymous":false},{"type":"error","name":"ERC20InsufficientAllowance","inputs":[{"name":"spender","type":"address","internalType":"address"},{"name":"allowance","type":"uint256","internalType":"uint256"},{"name":"needed","type":"uint256","internalType":"uint256"}]},{"type":"error","name":"ERC20InsufficientBalance","inputs":[{"name":"sender","type":"address","internalType":"address"},{"name":"balance","type":"uint256","internalType":"uint256"},{"name":"needed","type":"uint256","internalType":"uint256"}]},{"type":"error","name":"ERC20InvalidApprover","inputs":[{"name":"approver","type":"address","internalType":"address"}]},{"type":"error","name":"ERC20InvalidReceiver","inputs":[{"name":"receiver","type":"address","internalType":"address"}]},{"type":"error","name":"ERC20InvalidSender","inputs":[{"name":"sender","type":"address","internalType":"address"}]},{"type":"error","name":"ERC20InvalidSpender","inputs":[{"name":"spender","type":"address","internalType":"address"}]}],"bytecode":{"object":"0x608060405234801561000f575f5ffd5b5060405161189d38038061189d833981810160405281019061003191906103ac565b806040518060400160405280600781526020017f4d79546f6b656e000000000000000000000000000000000000000000000000008152506040518060400160405280600381526020017f4d544b000000000000000000000000000000000000000000000000000000000081525081600390816100ad919061060b565b5080600490816100bd919061060b565b5050506100d033826100d760201b60201c565b50506107ef565b5f73ffffffffffffffffffffffffffffffffffffffff168273ffffffffffffffffffffffffffffffffffffffff1603610147575f6040517fec442f0500000000000000000000000000000000000000000000000000000000815260040161013e9190610719565b60405180910390fd5b6101585f838361015c60201b60201c565b5050565b5f73ffffffffffffffffffffffffffffffffffffffff168373ffffffffffffffffffffffffffffffffffffffff16036101ac578060025f8282546101a0919061075f565b9250508190555061027a565b5f5f5f8573ffffffffffffffffffffffffffffffffffffffff1673ffffffffffffffffffffffffffffffffffffffff1681526020019081526020015f2054905081811015610235578381836040517fe450d38c00000000000000000000000000000000000000000000000000000000815260040161022c939291906107a1565b60405180910390fd5b8181035f5f8673ffffffffffffffffffffffffffffffffffffffff1673ffffffffffffffffffffffffffffffffffffffff1681526020019081526020015f2081905550505b5f73ffffffffffffffffffffffffffffffffffffffff168273ffffffffffffffffffffffffffffffffffffffff16036102c1578060025f828254039250508190555061030b565b805f5f8473ffffffffffffffffffffffffffffffffffffffff1673ffffffffffffffffffffffffffffffffffffffff1681526020019081526020015f205f82825401925050819055505b8173ffffffffffffffffffffffffffffffffffffffff168373ffffffffffffffffffffffffffffffffffffffff167fddf252ad1be2c89b69c2b068fc378daa952ba7f163c4a11628f55a4df523b3ef8360405161036891906107d6565b60405180910390a3505050565b5f5ffd5b5f819050919050565b61038b81610379565b8114610395575f5ffd5b50565b5f815190506103a681610382565b92915050565b5f602082840312156103c1576103c0610375565b5b5f6103ce84828501610398565b91505092915050565b5f81519050919050565b7f4e487b71000000000000000000000000000000000000000000000000000000005f52604160045260245ffd5b7f4e487b71000000000000000000000000000000000000000000000000000000005f52602260045260245ffd5b5f600282049050600182168061045257607f821691505b6020821081036104655761046461040e565b5b50919050565b5f819050815f5260205f209050919050565b5f6020601f8301049050919050565b5f82821b905092915050565b5f600883026104c77fffffffffffffffffffffffffffffffffffffffffffffffffffffffffffffffff8261048c565b6104d1868361048c565b95508019841693508086168417925050509392505050565b5f819050919050565b5f61050c61050761050284610379565b6104e9565b610379565b9050919050565b5f819050919050565b610525836104f2565b61053961053182610513565b848454610498565b825550505050565b5f5f905090565b610550610541565b61055b81848461051c565b505050565b5b8181101561057e576105735f82610548565b600181019050610561565b5050565b601f8211156105c3576105948161046b565b61059d8461047d565b810160208510156105ac578190505b6105c06105b88561047d565b830182610560565b50505b505050565b5f82821c905092915050565b5f6105e35f19846008026105c8565b1980831691505092915050565b5f6105fb83836105d4565b9150826002028217905092915050565b610614826103d7565b67ffffffffffffffff81111561062d5761062c6103e1565b5b610637825461043b565b610642828285610582565b5f60209050601f831160018114610673575f8415610661578287015190505b61066b85826105f0565b8655506106d2565b601f1984166106818661046b565b5f5b828110156106a857848901518255600182019150602085019450602081019050610683565b868310156106c557848901516106c1601f8916826105d4565b8355505b6001600288020188555050505b505050505050565b5f73ffffffffffffffffffffffffffffffffffffffff82169050919050565b5f610703826106da565b9050919050565b610713816106f9565b82525050565b5f60208201905061072c5f83018461070a565b92915050565b7f4e487b71000000000000000000000000000000000000000000000000000000005f52601160045260245ffd5b5f61076982610379565b915061077483610379565b925082820190508082111561078c5761078b610732565b5b92915050565b61079b81610379565b82525050565b5f6060820190506107b45f83018661070a565b6107c16020830185610792565b6107ce6040830184610792565b949350505050565b5f6020820190506107e95f830184610792565b92915050565b6110a1806107fc5f395ff3fe608060405234801561000f575f5ffd5b506004361061009c575f3560e01c8063313ce56711610064578063313ce5671461016c57806370a082311461018a57806395d89b41146101ba578063a9059cbb146101d8578063dd62ed3e146102085761009c565b806306fdde03146100a0578063095ea7b3146100be57806318160ddd146100ee5780631a825b751461010c57806323b872dd1461013c575b5f5ffd5b6100a8610238565b6040516100b59190610bce565b60405180910390f35b6100d860048036038101906100d39190610c7f565b6102c8565b6040516100e59190610cd7565b60405180910390f35b6100f66102ea565b6040516101039190610cff565b60405180910390f35b61012660048036038101906101219190610c7f565b6102f3565b6040516101339190610cd7565b60405180910390f35b61015660048036038101906101519190610d18565b61041a565b6040516101639190610cd7565b60405180910390f35b610174610448565b6040516101819190610d83565b60405180910390f35b6101a4600480360381019061019f9190610d9c565b610450565b6040516101b19190610cff565b60405180910390f35b6101c2610495565b6040516101cf9190610bce565b60405180910390f35b6101f260048036038101906101ed9190610c7f565b610525565b6040516101ff9190610cd7565b60405180910390f35b610222600480360381019061021d9190610dc7565b610547565b60405161022f9190610cff565b60405180910390f35b60606003805461024790610e32565b80601f016020809104026020016040519081016040528092919081815260200182805461027390610e32565b80156102be5780601f10610295576101008083540402835291602001916102be565b820191905f5260205f20905b8154815290600101906020018083116102a157829003601f168201915b5050505050905090565b5f5f6102d26105c9565b90506102df8185856105d0565b600191505092915050565b5f600254905090565b5f5f6102ff8484610525565b905080610341576040517f08c379a000000000000000000000000000000000000000000000000000000000815260040161033890610eac565b60405180910390fd5b61034a846105e2565b1561040f575f8473ffffffffffffffffffffffffffffffffffffffff166324a756d133866040518363ffffffff1660e01b815260040161038b929190610ed9565b6020604051808303815f875af11580156103a7573d5f5f3e3d5ffd5b505050506040513d601f19601f820116820180604052508101906103cb9190610f2a565b90508061040d576040517f08c379a000000000000000000000000000000000000000000000000000000000815260040161040490610f9f565b60405180910390fd5b505b600191505092915050565b5f5f6104246105c9565b90506104318582856105f3565b61043c858585610686565b60019150509392505050565b5f6012905090565b5f5f5f8373ffffffffffffffffffffffffffffffffffffffff1673ffffffffffffffffffffffffffffffffffffffff1681526020019081526020015f20549050919050565b6060600480546104a490610e32565b80601f01602080910402602001604051908101604052809291908181526020018280546104d090610e32565b801561051b5780601f106104f25761010080835404028352916020019161051b565b820191905f5260205f20905b8154815290600101906020018083116104fe57829003601f168201915b5050505050905090565b5f5f61052f6105c9565b905061053c818585610686565b600191505092915050565b5f60015f8473ffffffffffffffffffffffffffffffffffffffff1673ffffffffffffffffffffffffffffffffffffffff1681526020019081526020015f205f8373ffffffffffffffffffffffffffffffffffffffff1673ffffffffffffffffffffffffffffffffffffffff1681526020019081526020015f2054905092915050565b5f33905090565b6105dd8383836001610776565b505050565b5f5f823b90505f8111915050919050565b5f6105fe8484610547565b90507fffffffffffffffffffffffffffffffffffffffffffffffffffffffffffffffff8110156106805781811015610671578281836040517ffb8f41b200000000000000000000000000000000000000000000000000000000815260040161066893929190610fbd565b60405180910390fd5b61067f84848484035f610776565b5b50505050565b5f73ffffffffffffffffffffffffffffffffffffffff168373ffffffffffffffffffffffffffffffffffffffff16036106f6575f6040517f96c6fd1e0000000000000000000000000000000000000000000000000000000081526004016106ed9190610ff2565b60405180910390fd5b5f73ffffffffffffffffffffffffffffffffffffffff168273ffffffffffffffffffffffffffffffffffffffff1603610766575f6040517fec442f0500000000000000000000000000000000000000000000000000000000815260040161075d9190610ff2565b60405180910390fd5b610771838383610945565b505050565b5f73ffffffffffffffffffffffffffffffffffffffff168473ffffffffffffffffffffffffffffffffffffffff16036107e6575f6040517fe602df050000000000000000000000000000000000000000000000000000000081526004016107dd9190610ff2565b60405180910390fd5b5f73ffffffffffffffffffffffffffffffffffffffff168373ffffffffffffffffffffffffffffffffffffffff1603610856575f6040517f94280d6200000000000000000000000000000000000000000000000000000000815260040161084d9190610ff2565b60405180910390fd5b8160015f8673ffffffffffffffffffffffffffffffffffffffff1673ffffffffffffffffffffffffffffffffffffffff1681526020019081526020015f205f8573ffffffffffffffffffffffffffffffffffffffff1673ffffffffffffffffffffffffffffffffffffffff1681526020019081526020015f2081905550801561093f578273ffffffffffffffffffffffffffffffffffffffff168473ffffffffffffffffffffffffffffffffffffffff167f8c5be1e5ebec7d5bd14f71427d1e84f3dd0314c0f7b2291e5b200ac8c7c3b925846040516109369190610cff565b60405180910390a35b50505050565b5f73ffffffffffffffffffffffffffffffffffffffff168373ffffffffffffffffffffffffffffffffffffffff1603610995578060025f8282546109899190611038565b92505081905550610a63565b5f5f5f8573ffffffffffffffffffffffffffffffffffffffff1673ffffffffffffffffffffffffffffffffffffffff1681526020019081526020015f2054905081811015610a1e578381836040517fe450d38c000000000000000000000000000000000000000000000000000000008152600401610a1593929190610fbd565b60405180910390fd5b8181035f5f8673ffffffffffffffffffffffffffffffffffffffff1673ffffffffffffffffffffffffffffffffffffffff1681526020019081526020015f2081905550505b5f73ffffffffffffffffffffffffffffffffffffffff168273ffffffffffffffffffffffffffffffffffffffff1603610aaa578060025f8282540392505081905550610af4565b805f5f8473ffffffffffffffffffffffffffffffffffffffff1673ffffffffffffffffffffffffffffffffffffffff1681526020019081526020015f205f82825401925050819055505b8173ffffffffffffffffffffffffffffffffffffffff168373ffffffffffffffffffffffffffffffffffffffff167fddf252ad1be2c89b69c2b068fc378daa952ba7f163c4a11628f55a4df523b3ef83604051610b519190610cff565b60405180910390a3505050565b5f81519050919050565b5f82825260208201905092915050565b8281835e5f83830152505050565b5f601f19601f8301169050919050565b5f610ba082610b5e565b610baa8185610b68565b9350610bba818560208601610b78565b610bc381610b86565b840191505092915050565b5f6020820190508181035f830152610be68184610b96565b905092915050565b5f5ffd5b5f73ffffffffffffffffffffffffffffffffffffffff82169050919050565b5f610c1b82610bf2565b9050919050565b610c2b81610c11565b8114610c35575f5ffd5b50565b5f81359050610c4681610c22565b92915050565b5f819050919050565b610c5e81610c4c565b8114610c68575f5ffd5b50565b5f81359050610c7981610c55565b92915050565b5f5f60408385031215610c9557610c94610bee565b5b5f610ca285828601610c38565b9250506020610cb385828601610c6b565b9150509250929050565b5f8115159050919050565b610cd181610cbd565b82525050565b5f602082019050610cea5f830184610cc8565b92915050565b610cf981610c4c565b82525050565b5f602082019050610d125f830184610cf0565b92915050565b5f5f5f60608486031215610d2f57610d2e610bee565b5b5f610d3c86828701610c38565b9350506020610d4d86828701610c38565b9250506040610d5e86828701610c6b565b9150509250925092565b5f60ff82169050919050565b610d7d81610d68565b82525050565b5f602082019050610d965f830184610d74565b92915050565b5f60208284031215610db157610db0610bee565b5b5f610dbe84828501610c38565b91505092915050565b5f5f60408385031215610ddd57610ddc610bee565b5b5f610dea85828601610c38565b9250506020610dfb85828601610c38565b9150509250929050565b7f4e487b71000000000000000000000000000000000000000000000000000000005f52602260045260245ffd5b5f6002820490506001821680610e4957607f821691505b602082108103610e5c57610e5b610e05565b5b50919050565b7f5472616e73666572206661696c656400000000000000000000000000000000005f82015250565b5f610e96600f83610b68565b9150610ea182610e62565b602082019050919050565b5f6020820190508181035f830152610ec381610e8a565b9050919050565b610ed381610c11565b82525050565b5f604082019050610eec5f830185610eca565b610ef96020830184610cf0565b9392505050565b610f0981610cbd565b8114610f13575f5ffd5b50565b5f81519050610f2481610f00565b92915050565b5f60208284031215610f3f57610f3e610bee565b5b5f610f4c84828501610f16565b91505092915050565b7f43616c6c6261636b206661696c656400000000000000000000000000000000005f82015250565b5f610f89600f83610b68565b9150610f9482610f55565b602082019050919050565b5f6020820190508181035f830152610fb681610f7d565b9050919050565b5f606082019050610fd05f830186610eca565b610fdd6020830185610cf0565b610fea6040830184610cf0565b949350505050565b5f6020820190506110055f830184610eca565b92915050565b7f4e487b71000000000000000000000000000000000000000000000000000000005f52601160045260245ffd5b5f61104282610c4c565b915061104d83610c4c565b92508282019050808211156110655761106461100b565b5b9291505056fea26469706673582212204ed0613adf350d153e47474d22235b0dbfe01a3ed9c6c502e24a917eca32275064736f6c634300081c0033","linkReferences":{}},"methodIdentifiers":{"allowance(address,address)":"dd62ed3e","approve(address,uint256)":"095ea7b3","balanceOf(address)":"70a08231","decimals()":"313ce567","name()":"06fdde03","symbol()":"95d89b41","totalSupply()":"18160ddd","transfer(address,uint256)":"a9059cbb","transferFrom(address,address,uint256)":"23b872dd","transferWithCallback(address,uint256)":"1a825b75"},"id":0}